S02100005077724D676D742D41746D656761333238705F4453333233312E73726563ED
S113000033C00000D9C000004AC0000048C000004E
S113001046C0000044C0000042C0000040C00000D0
S11300203EC000003CC000003AC0000038C00000E0
S113003036C0000034C0000032C0000030C00000F0
S11300402EC000002CC000002AC0000028C0000000
S113005026C0000024C0000022C0000020C0000010
S11300601EC000001CC0000011241FBECFEFD8E04A
S1130070DEBFCDBF11E0A0E0B1E0E0E2F2E002C0FB
S113008005900D92A030B107D9F721E0A0E0B1E0CE
S113009001C01D92A030B207E1F7A5D0BFC0B0CF18
S11300A094EA9093BC00ECEBF0E090819923ECF798
S11300B09091B900987F983011F09031A1F4809319
S11300C0BB0084E88093BC00ECEBF0E080818823E3
S11300D0ECF79091B900987F983139F081E0903431
S11300E029F480E0089581E0089580E00895D8CF50
S11300F0089584E98093BC00ECEBF0E0808184FDFA
S1130100FDCF08958093BB0084E88093BC00ECEBA2
S1130110F0E080818823ECF79091B900987F81E02A
S1130120983209F480E00895CF93DF93D82FC62F37
S113013080EDB6DF8D2FE6DF8C2FE4DFDADFDF9191
S1130140CF91089584E88093BC00ECEBF0E08081CB
S11301508823ECF78091BB000895CF93C82F80EDDE
S11301609FDF8C2FCFDF81EDC2DFECDFC82FC1DF33
S11301708C2FCF910895E89AE9E6F0E080818260BF
S11301808083789408955298089583B7817F84601A
S113019083BF83B7816083BF83B7816083BF889542
S11301A083B78E7F83BF83B78E7F83BFE4E6F0E09F
S11301B080818071808308951F920F920FB60F92F1
S11301C011240F900FBE0F901F90189567E087E0E1
S11301D0ABDF60E888E0A8DF60E889E0A5DF60E8DD
S11301E08AE0A2CF0895CFDFF1DF60E08FE09CDFEB
S11301F065E08EE099DF8FE0B0DF80FF03C060E050
S11302008FE092DF2FEF8FE493EC215080409040F9
S1130210E1F700C00000AFDFB8DFEDCFF894FFCF07
S9030000FC
