S02100005077724D676D742D41746D656761333238705F4453333233312E73726563ED
S113000033C00000E4C0000042C0000040C0000053
S11300103EC000003CC000003AC0000038C00000F0
S113002036C0000034C0000032C0000030C0000000
S11300302EC000002CC000002AC0000028C0000010
S113004026C0000024C0000022C0000020C0000020
S11300501EC000001CC000001AC0000018C0000030
S113006016C0000014C0000011241FBECFEFD8E05A
S1130070DEBFCDBF11E0A0E0B1E0EAE3F2E002C0F0
S113008005900D92A030B107D9F7B9D0D4C0B8CF3C
S113009094EA9093BC00ECEBF0E090819923ECF7A8
S11300A09091B900987F983011F09031A1F4809329
S11300B0BB0084E88093BC00ECEBF0E080818823F3
S11300C0ECF79091B900987F983139F081E0903441
S11300D029F480E0089581E0089580E00895D8CF60
S11300E0089584E98093BC00ECEBF0E0808184FD0A
S11300F0FDCF08958093BB0084E88093BC00ECEBB3
S1130100F0E080818823ECF79091B900987F81E03A
S1130110983209F480E00895CF93DF93D82FC62F47
S113012080EDB6DF8D2FE6DF8C2FE4DFDADFDF91A1
S1130130CF91089584E88093BC00ECEBF0E08081DB
S11301408823ECF78091BB000895CF93C82F80EDEE
S11301509FDF8C2FCFDF81EDC2DFECDFC82FC1DF43
S11301608C2FCF910895E89AE9E6F0E080818260CF
S11301708083789408955298089583B7817F84602A
S113018083BF83B7816083BF83B7816083BF889552
S113019083B78E7F83BF83B78E7F83BFE4E6F0E0AF
S11301A080818071808308959DEC899F912D112415
S11301B0969596959695392F330F232F220F220F5C
S11301C0230F821B20E1929F800D112408951F921A
S11301D00F920FB60F9211240F900FBE0F901F9025
S11301E01895E2DF682F87E097DF60E888E094DF06
S11301F060E889E091DF60E88AE08ECF0895BBDF94
S113020087E0EFDF60E08FE087DF65E08EE084DF8A
S11302108FE09BDF80FF03C060E08FE07DDF2FEF86
S11302208FE493EC215080409040E1F700C000003F
S10D02309ADFA3DFEDCFF894FFCFAF
S9030000FC
