S02100005077724D676D742D41746D656761333238705F4453333233312E73726563ED
S113000033C00000F1C400004AC0000048C0000032
S113001046C0000044C0000042C0000040C00000D0
S11300203EC000003CC000003AC0000038C00000E0
S113003036C0000034C0000032C0000030C00000F0
S11300402EC000002CC000002AC0000028C0000000
S113005026C0000024C0000022C0000020C0000010
S11300601EC000001CC0000011241FBECFEFD8E04A
S1130070DEBFCDBF17E0A0E0B1E0E0E9FCE002C0E4
S113008005900D92A23FB107D9F728E0A2EFB7E09F
S113009001C01D92A130B207E1F7D3D4F7C5B0CFA8
S11300A0CF93DF931F92CDB7DEB74983DC0114965B
S11300B0ED91FC91159721E030E0AE014F5F5F4F69
S11300C088E6099591E0811101C090E0892F0F9095
S11300D0DF91CF91089530E0DC011696ED91FC910B
S11300E0179788E6099591E0811101C090E0892F66
S11300F00895EF92FF920F931F93CF93DF931F9274
S1130100CDB7DEB70097B9F1DC011E961C91113012
S1130110A1F5062F7C0121E0AE014F5F5F4F6EE039
S1130120DADF882369F081E894E09F938F93D70105
S11301301896ED91FC91199709950F900F9020C096
S113014049814F77002311F080E001C080E8482BFB
S113015049836EE0C701A4DF882389F08FE994E026
S11301609F938F93D7011896ED91FC911997099558
S11301700F900F9005C012E003C013E001C010E01F
S1130180812F0F90DF91CF911F910F91FF90EF90EE
S11301900895DF92EF92FF920F931F93CF93DF9313
S11301A01F92CDB7DEB7009709F444C0DC011E9658
S11301B01C91113009F040C0042FD62E7C0121E09F
S11301C0AE014F5F5F4F6EE086DF882369F081E800
S11301D094E09F938F93D7011896ED91FC91199712
S11301E009950F900F902BC081E090E00D2C02C078
S11301F0880F991F0A94E2F7809549814823802F3C
S113020090E002C0880F991FDA94E2F7482B4983E3
S11302106EE0C70145DF882389F08FE994E09F935E
S11302208F93D7011896ED91FC91199709950F902A
S11302300F9005C012E003C013E001C010E0812F4D
S11302400F90DF91CF911F910F91FF90EF90DF906E
S11302500895EF92FF920F931F93CF93DF931F9212
S1130260CDB7DEB70097A9F1DC011E961C911130C1
S113027091F5062F7C0121E0AE014F5F5F4F6EE0E8
S11302802ADF882369F081E894E09F938F93D70154
S11302901896ED91FC91199709950F900F901EC037
S11302A049814B7F602F660F660F462B49836EE0B2
S11302B0C701F6DE882389F08FE994E09F938F933A
S11302C0D7011896ED91FC91199709950F900F900D
S11302D005C012E003C013E001C010E0812F0F90AD
S11302E0DF91CF911F910F91FF90EF900895EF92BE
S11302F0FF920F931F93CF93DF931F92CDB7DEB777
S11303000097B1F1DC011E961C91113099F5062F6E
S11303107C0121E0AE014F5F5F4F6EE0DCDE88239D
S113032069F081E894E09F938F93D7011896ED913B
S1130330FC91199709950F900F901FC049814F7B2D
S1130340B0E40B9FC0011124482B49836EE0C70120
S1130350A7DE882389F08FE994E09F938F93D701D8
S11303601896ED91FC91199709950F900F9005C07F
S113037012E003C013E001C010E0812F0F90DF9161
S1130380CF911F910F91FF90EF9008950F931F93BA
S1130390CF930097C1F0DC011E96CC91C130A9F433
S11303A0462F8C0160E17CDE882389F084E195E0AE
S11303B09F938F93D8011896ED91FC911997099505
S11303C00F900F9005C0C2E003C0C3E001C0C0E0BD
S11303D08C2FCF911F910F910895CF93DF930097A6
S11303E081F0FC018685813071F4E901CB01BA0109
S11303F02FE832EC45EF5DE35FD3C6D3688380E03A
S113040003C082E001C083E0DF91CF910895FF92A1
S11304100F931F93CF93DF931F92CDB7DEB700974F
S113042009F4D1C0DC0118962D913C91199721153E
S1130430310509F4CCC08C01ED91FC91309769F43D
S11304408FE495E09F938F93F90109950F900F9096
S11304500F2EF3E0FF2EF02DBEC0DC0112968D911D
S11304609C911397892B69F48AE695E09F938F9367
S1130470F90109950F900F900F2EF3E0FF2EF02D48
S1130480AAC0D80114968D919C911597892B69F473
S113049087E895E09F938F93F90109950F900F904A
S11304A00F2EF3E0FF2EF02D96C0D80116968D91F5
S11304B09C911797892B69F483EA95E09F938F9316
S11304C0F90109950F900F900F2EF3E0FF2EF02DF8
S11304D082C0D8011C968D919C911D97892B69F43B
S11304E08EEB95E09F938F93F90109950F900F90F0
S11304F00F2EF3E0FF2EF02D6EC0D8011A968D91C9
S11305009C911B97892B69F489ED95E09F938F93B8
S1130510F90109950F900F900F2EF3E0FF2EF02DA7
S11305205AC00995F82E882379F08CEF95E09F93B3
S11305308F93D8011896ED91FC91199709950F9016
S11305400F90FF24F39447C021E0AE014F5F5F4F4B
S11305506FE0C801C0DD8823A9F08EEB94E09F937F
S11305608F93D8011896ED91FC9119970995D801AC
S11305701296ED91FC91139709950F900F90FF241B
S1130580F39429C049814F7749836FE0C80188DD1E
S11305908823A9F086E196E09F938F93D80118965B
S11305A0ED91FC9119970995D8011296ED91FC9162
S11305B0139709950F900F90FF24F3940CC081E0DA
S11305C0F801868708C06894FF24F1F804C00F2E50
S11305D0F3E0FF2EF02D8F2D0F90DF91CF911F911F
S11305E00F91FF9008951F93CF93DF930097C1F06D
S11305F0FC0116851130B1F4EC010280F381E02D89
S11306000995882359F084E396E09F938F93E885B6
S1130610F98509950F900F90812F05C01E8603C0A0
S113062082E001C083E0DF91CF911F910895EF92A2
S1130630FF920F931F93CF93DF931F92CDB7DEB733
S11306400097B1F1DC011E961C91113099F5062F2B
S11306507C0121E0AE014F5F5F4F6FE03CDD8823FA
S113066069F08EEB94E09F938F93D7011896ED91E8
S1130670FC91199709950F900F901FC04981477FEE
S1130680602F660F660F660F462B49836FE0C70124
S113069007DD882389F086E196E09F938F93D70145
S11306A01896ED91FC91199709950F900F9005C03C
S11306B012E003C013E001C010E0812F0F90DF911E
S11306C0CF911F910F91FF90EF900895CF93DF93F7
S11306D01F92CDB7DEB7E2EFF7E08FE0DF011D92A6
S11306E08A95E9F787E394E0918380838EE394E02D
S11306F09383828380E494E09783868385E794E000
S11307009583848385E894E09587848786E894E0DC
S1130710918780878DE894E093878287CF0177DE85
S1130720882349F08DE796E09F938F93EFD00F9045
S11307300F9081E098C061E082EF97E0DADC8823D3
S113074061F083E996E09F938F93E0D082EF97E086
S11307504ADF0F900F9081E086C040E060E082EFB6
S113076097E017DD882361F083EB96E09F938F93E6
S1130770CDD082EF97E037DF0F900F9081E073C008
S113078040E061E082EF97E004DD882361F089EDC9
S113079096E09F938F93BAD082EF97E024DF0F9077
S11307A00F9081E060C060E082EF97E052DD882323
S11307B061F08FEF96E09F938F93A8D082EF97E03C
S11307C012DF0F900F9081E04EC060E082EF97E05F
S11307D08EDD882361F088E197E09F938F9396D014
S11307E082EF97E000DF0F900F9081E03CC060E063
S11307F082EF97E01CDF882361F089E397E09F9301
S11308008F9384D082EF97E0EEDE0F900F9081E01B
S11308102AC09E012F5F3F4F40E050E0BA0182EFB3
S113082097E0DBDD882361F08BE597E09F938F935E
S11308306DD082EF97E0D7DE0F900F9081E013C068
S1130840698182EF97E0A2DD882361F080E897E078
S11308509F938F935BD082EF97E0C5DE0F900F904C
S113086081E001C080E00F90DF91CF910895109254
S1130870B90088E48093B80080E0089580E008958A
S1130880AF92BF92CF92DF92EF92FF920F931F939A
S1130890CF93DF9321153105E1F079016A01B62E7A
S11308A0082F000FAA24A394A00E162FC0E0D0E0B6
S11308B0802F5BD0812F5BD08A2D57D0CC0DDD1DCE
S11308C068D088831F5FC12FCB19D0E0CE15DF0518
S11308D078F380E0DF91CF911F910F91FF90EF901B
S11308E0DF90CF90BF90AF9008951F93CF93DF9385
S11308F0162FEA01880F39D0812F39D0888137D05B
S113090080E0DF91CF911F9108950895CF93DF93F5
S1130910CDB7DEB7DF91CF910895089594EA90930F
S1130920BC00ECEBF0E090819923ECF79091B900D6
S1130930987F983011F09031A1F48093BB0084E843
S11309408093BC00ECEBF0E080818823ECF790917D
S1130950B900987F983139F081E0903429F480E02F
S1130960089581E0089580E00895D8CF0895809394
S1130970BB0084E88093BC00ECEBF0E0808188232A
S1130980ECF79091B900987F81E0983209F480E007
S1130990089584E88093BC00ECEBF0E08081882328
S11309A0ECF78091BB000895E89AE9E6F0E08081D5
S11309B082608083789408955298089583B7817FE4
S11309C083BF83B7816083BF83B7816083BF88950A
S11309D083B78E7F83BF83B78E7F83BFE4E6F0E067
S11309E080818071808308951F920F920FB60F92B9
S11309F011248F939F9381E090E090930101809361
S1130A0000019F918F910F900FBE0F901F9018952A
S1130A1080ED84DF87E0ABDF87E0A9DF80ED7EDF58
S1130A2088E0A5DF80E8A3DF80ED78DF89E09FDF41
S1130A3080E89DDF80ED72DF8AE099DF80E897CF60
S1130A40089544DEB9DFE4DF80ED68DF8EE08FDFF8
S1130A5085E08DDF80ED62DF8FE089DF80E087DF76
S1130A60D7DF80ED5BDF8EE082DF85E080DF80ED25
S1130A7055DF8FE07CDF80E07ADF10920101109275
S1130A80000180ED4BDF8FE072DF81ED6EDF81DFEF
S1130A9080FF06C080ED42DF8FE069DF80E067DF22
S1130AA02FEF8FE493EC215080409040E1F700C099
S1130AB000007ADF83DFD4CF0CD0AEC0A6D040F0E4
S1130AC09DD030F021F45F3F19F08FC05111D8C090
S1130AD092C0B3D098F39923C9F35523B1F3951B6E
S1130AE0550BBB27AA2762177307840738F09F5F4B
S1130AF05F4F220F331F441FAA1FA9F333D00E2EBA
S1130B003AF0E0E830D091505040E695001CCAF726
S1130B1029D0FE2F27D0660F771F881FBB1F2617EB
S1130B2037074807AB07B0E809F0BB0B802DBF01BE
S1130B30FF2793585F4F2AF09E3F510568F055C038
S1130B409FC05F3FECF3983EDCF3869577956795FD
S1130B50B795F7959F5FC9F7880F911D969587956F
S1130B6097F90895E1E0660F771F881FBB1F62178E
S1130B7073078407BA0720F0621B730B840BBA0B4C
S1130B80EE1F88F7E095089504D06894B11178C0F9
S1130B9008955BD088F09F5790F0B92F9927B751EB
S1130BA0A0F0D1F0660F771F881F991F1AF0BA952D
S1130BB0C9F712C0B13081F062D0B1E008955FC0CE
S1130BC0672F782F8827B85F39F0B93FCCF3869523
S1130BD077956795B395D9F73EF490958095709580
S1130BE061957F4F8F4F9F4F089597F99F6780E8D6
S1130BF070E060E008959FEF80EC089500240A946B
S1130C001616170618060906089500240A941216E3
S1130C101306140605060895092E0394000C11F416
S1130C20882352F0BB0F40F4BF2B11F460FF04C0C3
S1130C306F5F7F4F8F4F9F4F089557FD9058440F1C
S1130C40551F59F05F3F71F04795880F97FB991F27
S1130C5061F09F3F79F087950895121613061406E4
S1130C60551FF2CF4695F1DF08C016161706180671
S1130C70991FF1CF86957105610508940895E8944C
S1130C80BB2766277727CB0197F90895F894FFCF00
S1130C9001006473333233313A2074696D6520691D
S1130CA073206E756C6C2E0A006473333233313AE0
S1130CB020796561722063616E2774206265206FFC
S1130CC07665722032313930206F72206C6573730F
S1130CD0207468616E20313939302E0A0064733310
S1130CE03233313A206D6F6E74682063616E2774FD
S1130CF0206265207A65726F206F72206F7665724C
S1130D00207468616E2031322E0A006473333233EA
S1130D10313A207765656B2063616E2774206265C4
S1130D20207A65726F206F72206F76657220746806
S1130D30616E20372E0A006473333233313A2064F3
S1130D406174652063616E2774206265207A657220
S1130D506F206F72206F766572207468616E203325
S1130D60312E0A006473333233313A20686F75725E
S1130D702063616E2774206265206F76657220742B
S1130D8068616E203132206F72206C65737320317C
S1130D902E0A006473333233313A206D696E7574F0
S1130DA0652063616E2774206265206F766572200A
S1130DB07468616E2035392E0A006473333233311E
S1130DC03A207365636F6E642063616E27742062DA
S1130DD065206F766572207468616E2035392E0A3D
S1130DE0006473333233313A20686F757220636163
S1130DF06E2774206265206F766572207468616E58
S1130E002032332E0A006473333233313A20666F52
S1130E10726D617420697320696E76616C69642EE9
S1130E200A006473333233313A207772697465206F
S1130E307365636F6E64206661696C65642E0A0075
S1130E406473333233313A207772697465206D6983
S1130E506E757465206661696C65642E0A0064733E
S1130E60333233313A20777269746520686F757252
S1130E70206661696C65642E0A0064733332333111
S1130E803A207772697465207765656B20666169BD
S1130E906C65642E0A006473333233313A207772FE
S1130EA06974652064617465206661696C65642E8B
S1130EB00A006473333233313A20777269746520DF
S1130EC063656E7475727920616E64206D6F6E74E3
S1130ED068206661696C65642E0A0064733332337A
S1130EE0313A207772697465207965617220666190
S1130EF0696C65642E0A006473333233313A206DB1
S1130F00756C7469706C65207265616420666169D2
S1130F106C65642E0A006473333233313A2077727D
S1130F2069746520616C61726D31207365636F6EE5
S1130F3064206661696C65642E0A0064733332331D
S1130F40313A20777269746520616C61726D312069
S1130F506D696E757465206661696C65642E0A003E
S1130F606473333233313A20777269746520616C6B
S1130F7061726D3120686F7572206661696C656499
S1130F802E0A006473333233313A20777269746500
S1130F9020616C61726D31207765656B20666169D3
S1130FA06C65642E0A006473333233313A207772ED
S1130FB069746520616C61726D32206D696E75743F
S1130FC065206661696C65642E0A0064733332338C
S1130FD0313A20777269746520616C61726D3220D8
S1130FE0686F7572206661696C65642E0A006473AB
S1130FF0333233313A20777269746520616C6172DF
S11310006D32207765656B206661696C65642E0AB4
S1131010006473333233313A207265616420636F44
S11310206E74726F6C206661696C65642E0A00646C
S113103073333233313A20777269746520636F6E8B
S113104074726F6C206661696C65642E0A00647347
S1131050333233313A20726561642073746174757C
S113106073206661696C65642E0A006473333233DD
S1131070313A20726561642074696D656F75742EF0
S11310800A006473333233313A2072656164207428
S1131090656D7065726174757265206661696C65F1
S11310A0642E0A006473333233313A2077726974E0
S11310B065206F6666736574206661696C65642E6D
S11310C00A006473333233313A2072656164206FED
S11310D06666736574206661696C65642E0A0064D3
S11310E073333233313A206969635F696E697420FE
S11310F06973206E756C6C2E0A006473333233315D
S11311003A206969635F6465696E69742069732054
S11311106E756C6C2E0A006473333233313A206975
S113112069635F7772697465206973206E756C6C8E
S11311302E0A006473333233313A206969635F7273
S1131140656164206973206E756C6C2E0A0064738B
S1131150333233313A2064656C61795F6D73206991
S113116073206E756C6C2E0A006473333233313A1B
S113117020726563656976655F63616C6C62616347
S11311806B206973206E756C6C2E0A0064733332A5
S113119033313A2069696320696E69742066616934
S11311A06C65642E0A006473333233313A207772EB
S11311B069746520737461747573206661696C6504
S11311C0642E0A006473333233313A206969632030
S11311D06465696E6974206661696C65642E0A00D1
S11311E04D6178696D20496E7465677261746564D8
S11311F020445333323331004D6178696D20496E98
S113120074656772617465640049494300647333AB
S11312103233313A20696E6974206661696C6564A1
S11312202E0A006473333233313A20736574206FAD
S11312307363696C6C61746F72206661696C656458
S11312402E0A006473333233313A2073657420619B
S11312506C61726D3120696E746572727570742080
S11312606661696C65642E0A006473333233313A03
S11312702073657420616C61726D3220696E7465CF
S11312807272757074206661696C65642E0A0064FC
S113129073333233313A207365742070696E20667B
S11312A061696C65642E0A006473333233313A2009
S11312B0736574207371756172652077617665203A
S11312C06661696C65642E0A006473333233313AA3
S11312D0207365742033326B687A206F757470756F
S11312E074206661696C65642E0A0064733332335A
S11312F0313A20636F6E7665727420746F20726564
S1131300676973746572206661696C65642E0A008E
S11313106473333233313A20736574206167696EC4
S113132067206F6666736574206661696C65642EF8
S11313300A00414D00504D00253034642D253032D3
S1131340642D2530326420253032643A25303264ED
S11313503A253032642025642E0A00253034642D69
S1131360253032642D253032642025732025303217
S1131370643A253032643A253032642025642E0ADA
S1051380000067
S9030000FC
