S02100005077724D676D742D41746D656761333238705F4453333233312E73726563ED
S113000033C0000088C000004AC0000048C000009F
S113001046C0000044C0000042C0000040C00000D0
S11300203EC000003CC000003AC0000038C00000E0
S113003036C0000034C0000032C0000030C00000F0
S11300402EC000002CC000002AC0000028C0000000
S113005026C0000024C0000022C0000020C0000010
S11300601EC000001CC0000011241FBECFEFD8E04A
S1130070DEBFCDBF11E0A0E0B1E0E8EAF1E002C0EC
S113008005900D92A030B107D9F721E0A0E0B1E0CE
S113009001C01D92A030B207E1F771D083C0B0CF88
S11300A094EA9093BC00ECEBF0E090819923ECF798
S11300B09091B900987F983011F09031A1F4809319
S11300C0BB0084E88093BC00ECEBF0E080818823E3
S11300D0ECF79091B900987F983139F081E0903431
S11300E029F480E0089581E0089580E008958093E4
S11300F0BB0084E88093BC00ECEBF0E080818823B3
S1130100ECF79091B900987F81E0983209F480E08F
S11301100895529808951F920F920FB60F921124CA
S11301208F939F938FE39CE90197F1F700C0000040
S11301309F918F910F900FBE0F901F90189580ED97
S1130140AFDF87E0D4DF87E0D2DF80EDA9DF88E08E
S1130150CEDF80E8CCDF80EDA3DF89E0C8DF80E874
S1130160C6DF80ED9DDF8AE0C2DF80E8C0CF08955E
S113017080ED96DF8EE0BBDF85E0B9CF0895C9DF5F
S1130180DEDFF6DF80ED8CDF8FE0B1DF80E0AFDF14
S11301902FEF87EA91E6215080409040E1F700C0BC
S10B01A00000EECFF894FFCF3C
S9030000FC
